:100000000C942A000C943F000C943F000C943F0089
:100010000C943F000C943F000C943F000C943F0064
:100020000C943F000C943F000C943F000C943F0054
:100030000C943F000C943F000C943F000C943F0044
:100040000C943F000C943F000C943F000C943F0034
:100050000C943F0011241FBECFE5D8E0DEBFCDBF1A
:1000600010E0A0E6B0E0E6EEF7E002C005900D92E9
:10007000A43EB107D9F70E9405010C94F1030C943A
:100080000000CF93C82F60E089E00E94960180E0D5
:100090000E94D2028F709C2F907F682F692B80E086
:1000A0000E94E40260E08BE00E9496018FE891E0FC
:1000B0000197F1F700C0000061E08BE00E9496011B
:1000C0008FE19EE40197F1F700C0000080E00E94FC
:1000D000D20290E1C99F900111248F70682F622B8A
:1000E00080E00E94E40260E08BE00E9496018FE8CD
:1000F00091E00197F1F700C0000061E08BE00E9401
:1001000096018FE39FE10197F1F700C00000CF91C6
:10011000089560E08AE00E94960161E08BE00E9411
:1001200096012FEF89EF90E0215080409040E1F759
:1001300000C0000083E30E94410082E30E9441006E
:1001400088E20E94410086E00E9441008CE00E940B
:1001500041000895CF93C82F61E089E00E94960185
:1001600080E00E94D2028F709C2F907F682F692BB5
:1001700080E00E94E40260E08BE00E9496018FE83C
:1001800091E00197F1F700C0000061E08BE00E9470
:1001900096018FE19EE40197F1F700C0000080E036
:1001A0000E94D20290E1C99F900111248F70682FA4
:1001B000622B80E00E94E40260E08BE00E949601E6
:1001C0008FE891E00197F1F700C0000061E08BE05B
:1001D0000E9496018FE39FE10197F1F700C00000B4
:1001E000CF9108950F931F93CF938C01C0E003C06C
:1001F0000E94AA00CF5FF801EC0FF11D80818111F0
:10020000F7CFCF911F910F910895CF93DF9300D037
:1002100000D0CDB7DEB70E94F4020E948900198297
:100220001A8282E08B831C82CE0101960E949A037F
:1002300080EA90E00E94F20080E30E94EC038133A8
:1002400051F020F4803309F45DC0F6CF823301F120
:100250008333D9F1F1CF82E10E94180281110CC0E1
:1002600061E082E10E94960181E00E94410081EB01
:1002700090E00E94F200E0CF60E082E10E949601EF
:1002800081E00E94410089EB90E00E94F200D4CF0F
:1002900087E10E94180281110CC061E087E10E9491
:1002A000960181E00E94410082EC90E00E94F20001
:1002B000C3CF60E087E10E94960181E00E94410087
:1002C0008AEC90E00E94F200B7CF8BE10E94180206
:1002D00081110CC061E08BE10E94960181E00E94D7
:1002E000410083ED90E00E94F200A6CF60E08BE138
:1002F0000E94960181E00E9441008BED90E00E94F7
:10030000F2009ACF60E082E10E94960160E087E10E
:100310000E94960160E08BE10E94960181E00E94BC
:10032000410080EA90E00E94F20086CF982F9695D7
:10033000969596958770913021F130F09230F1F1D9
:10034000933009F458C00895613069F44BB321E04B
:1003500030E0B90102C0660F771F8A95E2F7CB0142
:10036000842B8BBB08954BB321E030E0B90102C070
:10037000660F771F8A95E2F7CB01809584238BBBAC
:100380000895613069F448B321E030E0B90102C05A
:10039000660F771F8A95E2F7CB01842B88BB0895FF
:1003A00048B321E030E0B90102C0660F771F8A959B
:1003B000E2F7CB018095842388BB0895613069F40E
:1003C00045B321E030E0B90102C0660F771F8A957E
:1003D000E2F7CB01842B85BB089545B321E030E0E3
:1003E000B90102C0660F771F8A95E2F7CB018095AD
:1003F000842385BB0895613069F442B321E030E085
:10040000B90102C0660F771F8A95E2F7CB01842BF2
:1004100082BB089542B321E030E0B90102C0660F0B
:10042000771F8A95E2F7CB018095842382BB0895DC
:10043000982F969596959695482F4770913081F014
:1004400028F09230B9F09330F9F028C099B3892F91
:1004500090E002C0959587954A95E2F781700895DE
:1004600026B330E0C90102C0959587954A95E2F719
:100470008170089523B330E0C90102C09595879536
:100480004A95E2F78170089520B330E0C90102C0B7
:10049000959587954A95E2F78170089580E00895D3
:1004A000982F9695969596958770913021F130F01A
:1004B0009230F1F1933009F458C00895613069F435
:1004C0004AB321E030E0B90102C0660F771F8A9578
:1004D000E2F7CB01842B8ABB08954AB321E030E0D8
:1004E000B90102C0660F771F8A95E2F7CB018095AC
:1004F00084238ABB0895613069F447B321E030E07A
:10050000B90102C0660F771F8A95E2F7CB01842BF1
:1005100087BB089547B321E030E0B90102C0660F00
:10052000771F8A95E2F7CB018095842387BB0895D6
:10053000613069F444B321E030E0B90102C0660FD4
:10054000771F8A95E2F7CB01842B84BB089544B3CF
:1005500021E030E0B90102C0660F771F8A95E2F70B
:10056000CB018095842384BB0895613069F441B345
:1005700021E030E0B90102C0660F771F8A95E2F7EB
:10058000CB01842B81BB089541B321E030E0B90158
:1005900002C0660F771F8A95E2F7CB01809584230E
:1005A00081BB0895813041F028F0823039F08330EA
:1005B00039F008C08BB3089588B3089585B30895C2
:1005C00082B3089580E00895813041F028F08230B0
:1005D00039F0833039F008956BBB089568BB0895F6
:1005E00065BB089562BB089580E0A0C0982F9695E2
:1005F00096959695282F2770913061F138F09230BA
:1006000009F44CC0933009F46DC08FC0E82FF0E0BE
:10061000EE0FFF1FE05AFF4F9081913069F49AB3BB
:1006200041E050E0BA0102C0660F771F2A95E2F759
:100630009B01292B2ABB79C09AB341E050E0BA0153
:1006400002C0660F771F2A95E2F79B0120952923A8
:100650002ABB6BC0E82FF0E0EE0FFF1FE05AFF4F00
:100660009081913069F497B341E050E0BA0102C043
:10067000660F771F2A95E2F79B01292B27BB55C0F0
:1006800097B341E050E0BA0102C0660F771F2A9588
:10069000E2F79B012095292327BB47C0E82FF0E014
:1006A000EE0FFF1FE05AFF4F9081913069F494B331
:1006B00041E050E0BA0102C0660F771F2A95E2F7C9
:1006C0009B01292B24BB31C094B341E050E0BA0117
:1006D00002C0660F771F2A95E2F79B012095292318
:1006E00024BB23C0E82FF0E0EE0FFF1FE05AFF4FBE
:1006F0009081913069F491B341E050E0BA0102C0B9
:10070000660F771F2A95E2F79B01292B21BB0DC0AD
:1007100091B341E050E0BA0102C0660F771F2A95FD
:10072000E2F79B012095292321BB8F5F803208F4DB
:100730005DCF0895CF93DF93EC0188818823C9F0C2
:10074000813069F561E08CE00E94500261E08DE04B
:100750000E94500260E08EE00E94500261E08FE053
:100760000E9450028DB180618DB98DB180648DB9C8
:1007700016C060E08CE00E94500260E08DE00E94B4
:10078000500261E08EE00E94500260E08FE00E9423
:1007900050028DB18F7E8DB98DB180648DB92DB130
:1007A000998130E2939FC0011124822B8DB98B81F6
:1007B000813041F48EB181608EB99DB18A81892BDF
:1007C0008DB907C08EB18E7F8EB99DB18A81892B7C
:1007D0008DB9DF91CF9108958FB9779BFECF8FB1FF
:0607E0000895F894FFCF1C
:1007E60001010101010101010101010101010101F3
:1007F60001010101010101010101010101010101E3
:1008060001010101010101010101010101010101D2
:1008160001010101010101010101010101010101C2
:10082600416C6C204C45447320617265204F4646EE
:10083600004C454430204F4E004C454430204F4636
:1008460046004C454431204F4E004C454431204F24
:100856004646004C454432204F4E004C454432201B
:040866004F464600B3
:00000001FF
